{
  "contractName": "Voting",
  "abi": [
    {
      "constant": true,
      "inputs": [
        {
          "name": "",
          "type": "bytes32"
        }
      ],
      "name": "validCandidates",
      "outputs": [
        {
          "name": "",
          "type": "bool"
        }
      ],
      "payable": false,
      "stateMutability": "view",
      "type": "function"
    },
    {
      "constant": true,
      "inputs": [
        {
          "name": "",
          "type": "address"
        }
      ],
      "name": "voterStatus",
      "outputs": [
        {
          "name": "",
          "type": "bool"
        }
      ],
      "payable": false,
      "stateMutability": "view",
      "type": "function"
    },
    {
      "constant": true,
      "inputs": [
        {
          "name": "",
          "type": "bytes32"
        }
      ],
      "name": "votesReceived",
      "outputs": [
        {
          "name": "",
          "type": "uint8"
        }
      ],
      "payable": false,
      "stateMutability": "view",
      "type": "function"
    },
    {
      "constant": true,
      "inputs": [],
      "name": "proposal",
      "outputs": [
        {
          "name": "",
          "type": "bytes32"
        }
      ],
      "payable": false,
      "stateMutability": "view",
      "type": "function"
    },
    {
      "constant": true,
      "inputs": [
        {
          "name": "",
          "type": "bytes32"
        },
        {
          "name": "",
          "type": "uint256"
        }
      ],
      "name": "proposalOptions",
      "outputs": [
        {
          "name": "",
          "type": "bytes32"
        }
      ],
      "payable": false,
      "stateMutability": "view",
      "type": "function"
    },
    {
      "constant": true,
      "inputs": [
        {
          "name": "",
          "type": "bytes32"
        }
      ],
      "name": "candidateHash",
      "outputs": [
        {
          "name": "",
          "type": "bytes32"
        }
      ],
      "payable": false,
      "stateMutability": "view",
      "type": "function"
    },
    {
      "inputs": [],
      "payable": false,
      "stateMutability": "nonpayable",
      "type": "constructor"
    },
    {
      "constant": false,
      "inputs": [
        {
          "name": "_proposal",
          "type": "bytes32"
        },
        {
          "name": "_options",
          "type": "bytes32[]"
        }
      ],
      "name": "addProposal",
      "outputs": [],
      "payable": false,
      "stateMutability": "nonpayable",
      "type": "function"
    },
    {
      "constant": false,
      "inputs": [],
      "name": "getProposal",
      "outputs": [
        {
          "name": "",
          "type": "bytes32"
        }
      ],
      "payable": false,
      "stateMutability": "nonpayable",
      "type": "function"
    },
    {
      "constant": false,
      "inputs": [],
      "name": "getProposalOptions",
      "outputs": [
        {
          "name": "",
          "type": "bytes32[]"
        }
      ],
      "payable": false,
      "stateMutability": "nonpayable",
      "type": "function"
    },
    {
      "constant": true,
      "inputs": [
        {
          "name": "_candidate",
          "type": "bytes32"
        }
      ],
      "name": "totalVotesFor",
      "outputs": [
        {
          "name": "",
          "type": "uint8"
        }
      ],
      "payable": false,
      "stateMutability": "view",
      "type": "function"
    },
    {
      "constant": false,
      "inputs": [
        {
          "name": "_candidate",
          "type": "bytes32"
        },
        {
          "name": "_voter",
          "type": "address"
        },
        {
          "name": "_signedMessage",
          "type": "bytes"
        }
      ],
      "name": "voteForCandidate",
      "outputs": [],
      "payable": false,
      "stateMutability": "nonpayable",
      "type": "function"
    }
  ],
  "bytecode": "0x6060604052341561000f57600080fd5b6108b18061001e6000396000f3006060604052600436106100af576000357c0100000000000000000000000000000000000000000000000000000000900463ffffffff1680632f265cf7146100b45780633390b9c2146100f5578063576cc4f2146101345780635968892f146101855780637021939f146101ec578063753ec1031461022d578063968d6ba91461025e578063abc2b55a146102aa578063b9e2bea014610314578063cd3a83d514610345578063efa4f3c4146103ce575b600080fd5b34156100bf57600080fd5b6100d9600480803560001916906020019091905050610411565b604051808260ff1660ff16815260200191505060405180910390f35b341561010057600080fd5b61011a600480803560001916906020019091905050610476565b604051808215151515815260200191505060405180910390f35b341561013f57600080fd5b61016b600480803573ffffffffffffffffffffffffffffffffffffffff16906020019091905050610496565b604051808215151515815260200191505060405180910390f35b341561019057600080fd5b6101ea600480803560001916906020019091908035906020019082018035906020019080806020026020016040519081016040528093929190818152602001838360200280828437820191505050505050919050506104b6565b005b34156101f757600080fd5b6102116004808035600019169060200190919050506105b2565b604051808260ff1660ff16815260200191505060405180910390f35b341561023857600080fd5b6102406105d2565b60405180826000191660001916815260200191505060405180910390f35b341561026957600080fd5b61028c6004808035600019169060200190919080359060200190919050506105d8565b60405180826000191660001916815260200191505060405180910390f35b34156102b557600080fd5b6102bd610609565b6040518080602001828103825283818151815260200191508051906020019060200280838360005b838110156103005780820151818401526020810190506102e5565b505050509050019250505060405180910390f35b341561031f57600080fd5b610327610686565b60405180826000191660001916815260200191505060405180910390f35b341561035057600080fd5b6103cc60048080356000191690602001909190803573ffffffffffffffffffffffffffffffffffffffff1690602001909190803590602001908201803590602001908080601f01602080910402602001604051908101604052809392919081815260200183838082843782019150505050505091905050610690565b005b34156103d957600080fd5b6103f36004808035600019169060200190919050506107e1565b60405180826000191660001916815260200191505060405180910390f35b600060036000836000191660001916815260200190815260200160002060009054906101000a900460ff16151561044757600080fd5b600080836000191660001916815260200190815260200160002060009054906101000a900460ff169050919050565b60036020528060005260406000206000915054906101000a900460ff1681565b60026020528060005260406000206000915054906101000a900460ff1681565b6000826004816000191690555081600560006004546000191660001916815260200190815260200160002090805190602001906104f49291906107f9565b50600090505b81518110156105ad57600160036000848481518110151561051757fe5b906020019060200201516000191660001916815260200190815260200160002060006101000a81548160ff021916908315150217905550818181518110151561055c57fe5b9060200190602002015160016000848481518110151561057857fe5b9060200190602002015160001916600019168152602001908152602001600020816000191690555080806001019150506104fa565b505050565b60006020528060005260406000206000915054906101000a900460ff1681565b60045481565b6005602052816000526040600020818154811015156105f357fe5b9060005260206000209001600091509150505481565b61061161084c565b600560006004546000191660001916815260200190815260200160002080548060200260200160405190810160405280929190818152602001828054801561067c57602002820191906000526020600020905b81546000191681526020019060010190808311610664575b5050505050905090565b6000600454905090565b6000600260008473ffffffffffffffffffffffffffffffffffffffff1673ffffffffffffffffffffffffffffffffffffffff16815260200190815260200160002060009054906101000a900460ff161515156106eb57600080fd5b60016000856000191660001916815260200190815260200160002054905060036000856000191660001916815260200190815260200160002060009054906101000a900460ff16151561073d57600080fd5b6001600080866000191660001916815260200190815260200160002060008282829054906101000a900460ff160192506101000a81548160ff021916908360ff1602179055506001600260008573ffffffffffffffffffffffffffffffffffffffff1673ffffffffffffffffffffffffffffffffffffffff16815260200190815260200160002060006101000a81548160ff02191690831515021790555050505050565b60016020528060005260406000206000915090505481565b82805482825590600052602060002090810192821561083b579160200282015b8281111561083a578251829060001916905591602001919060010190610819565b5b5090506108489190610860565b5090565b602060405190810160405280600081525090565b61088291905b8082111561087e576000816000905550600101610866565b5090565b905600a165627a7a7230582026ee03798a50ae7fbaf399760ee9f9a6883f6ddd2f93ce0e35e6fce45e6f3ad80029",
  "source": "pragma solidity ^0.4.18;\nimport \"./ECRecovery.sol\";\n\ncontract Voting {\n  using ECRecovery for bytes32;\n\n  mapping (bytes32 => uint8) public votesReceived;\n\n  mapping(bytes32 => bytes32) public candidateHash;\n\n  mapping(address => bool) public voterStatus;\n\n  mapping(bytes32 => bool) public validCandidates;\n\n  bytes32 public proposal;\n\n  mapping(bytes32 => bytes32[]) public proposalOptions;\n\n  function Voting() public {\n  }\n\n  function addProposal(bytes32 _proposal, bytes32[] _options) public {\n    proposal = _proposal;\n    proposalOptions[proposal] = _options;\n\n    for(uint i = 0; i < _options.length; i++) {\n      validCandidates[_options[i]] = true;\n      candidateHash[_options[i]] = _options[i];\n    }\n  }\n\n  function getProposal() public returns (bytes32) {\n    return proposal;\n  }\n\n  function getProposalOptions() public returns (bytes32[]) {\n    return proposalOptions[proposal];\n  }\n\n  function totalVotesFor(bytes32 _candidate) view public returns (uint8) {\n    require(validCandidates[_candidate]);\n    return votesReceived[_candidate];\n  }\n\n  function voteForCandidate(bytes32 _candidate, address _voter, bytes _signedMessage) public {\n  //function voteForCandidate(bytes32 _candidate, address _voter) public {\n    require(!voterStatus[_voter]);\n\n    bytes32 voteHash = candidateHash[_candidate];\n    //address recoveredAddress = voteHash.recover(_signedMessage);\n\n    //require(recoveredAddress == _voter);\n    require(validCandidates[_candidate]);\n\n    votesReceived[_candidate] += 1;\n    voterStatus[_voter] = true;\n  }\n}\n\n",
  "sourcePath": "/Users/mozzanlin/workspace/restaurants_rating/contracts/Voting.sol",
  "compiler": {
    "name": "solc",
    "version": "0.4.19+commit.c4cbbb05.Emscripten.clang"
  },
  "schemaVersion": "1.0.1",
  "updatedAt": "2021-06-24T14:39:41.240Z"
}