{
  "contractName": "Voting",
  "abi": [
    {
      "constant": true,
      "inputs": [
        {
          "name": "",
          "type": "bytes32"
        }
      ],
      "name": "validCandidates",
      "outputs": [
        {
          "name": "",
          "type": "bool"
        }
      ],
      "payable": false,
      "stateMutability": "view",
      "type": "function"
    },
    {
      "constant": true,
      "inputs": [
        {
          "name": "",
          "type": "address"
        }
      ],
      "name": "voterStatus",
      "outputs": [
        {
          "name": "",
          "type": "bool"
        }
      ],
      "payable": false,
      "stateMutability": "view",
      "type": "function"
    },
    {
      "constant": true,
      "inputs": [
        {
          "name": "",
          "type": "bytes32"
        }
      ],
      "name": "votesReceived",
      "outputs": [
        {
          "name": "",
          "type": "uint8"
        }
      ],
      "payable": false,
      "stateMutability": "view",
      "type": "function"
    },
    {
      "constant": true,
      "inputs": [
        {
          "name": "",
          "type": "bytes32"
        }
      ],
      "name": "candidateHash",
      "outputs": [
        {
          "name": "",
          "type": "bytes32"
        }
      ],
      "payable": false,
      "stateMutability": "view",
      "type": "function"
    },
    {
      "inputs": [
        {
          "name": "_candidateNames",
          "type": "bytes32[]"
        },
        {
          "name": "_candidateHashes",
          "type": "bytes32[]"
        }
      ],
      "payable": false,
      "stateMutability": "nonpayable",
      "type": "constructor"
    },
    {
      "constant": true,
      "inputs": [
        {
          "name": "_candidate",
          "type": "bytes32"
        }
      ],
      "name": "totalVotesFor",
      "outputs": [
        {
          "name": "",
          "type": "uint8"
        }
      ],
      "payable": false,
      "stateMutability": "view",
      "type": "function"
    },
    {
      "constant": false,
      "inputs": [
        {
          "name": "_candidate",
          "type": "bytes32"
        },
        {
          "name": "_voter",
          "type": "address"
        },
        {
          "name": "_signedMessage",
          "type": "bytes"
        }
      ],
      "name": "voteForCandidate",
      "outputs": [],
      "payable": false,
      "stateMutability": "nonpayable",
      "type": "function"
    }
  ],
  "bytecode": "0x6060604052341561000f57600080fd5b6040516105b43803806105b48339810160405280805182019190602001805182019190505060008090505b82518110156100ed57600160036000858481518110151561005757fe5b906020019060200201516000191660001916815260200190815260200160002060006101000a81548160ff021916908315150217905550818181518110151561009c57fe5b906020019060200201516001600085848151811015156100b857fe5b90602001906020020151600019166000191681526020019081526020016000208160001916905550808060010191505061003a565b5050506104b5806100ff6000396000f300606060405260043610610078576000357c0100000000000000000000000000000000000000000000000000000000900463ffffffff1680632f265cf71461007d5780633390b9c2146100be578063576cc4f2146100fd5780637021939f1461014e578063cd3a83d51461018f578063efa4f3c414610218575b600080fd5b341561008857600080fd5b6100a260048080356000191690602001909190505061025b565b604051808260ff1660ff16815260200191505060405180910390f35b34156100c957600080fd5b6100e36004808035600019169060200190919050506102c0565b604051808215151515815260200191505060405180910390f35b341561010857600080fd5b610134600480803573ffffffffffffffffffffffffffffffffffffffff169060200190919050506102e0565b604051808215151515815260200191505060405180910390f35b341561015957600080fd5b610173600480803560001916906020019091905050610300565b604051808260ff1660ff16815260200191505060405180910390f35b341561019a57600080fd5b61021660048080356000191690602001909190803573ffffffffffffffffffffffffffffffffffffffff1690602001909190803590602001908201803590602001908080601f01602080910402602001604051908101604052809392919081815260200183838082843782019150505050505091905050610320565b005b341561022357600080fd5b61023d600480803560001916906020019091905050610471565b60405180826000191660001916815260200191505060405180910390f35b600060036000836000191660001916815260200190815260200160002060009054906101000a900460ff16151561029157600080fd5b600080836000191660001916815260200190815260200160002060009054906101000a900460ff169050919050565b60036020528060005260406000206000915054906101000a900460ff1681565b60026020528060005260406000206000915054906101000a900460ff1681565b60006020528060005260406000206000915054906101000a900460ff1681565b6000600260008473ffffffffffffffffffffffffffffffffffffffff1673ffffffffffffffffffffffffffffffffffffffff16815260200190815260200160002060009054906101000a900460ff1615151561037b57600080fd5b60016000856000191660001916815260200190815260200160002054905060036000856000191660001916815260200190815260200160002060009054906101000a900460ff1615156103cd57600080fd5b6001600080866000191660001916815260200190815260200160002060008282829054906101000a900460ff160192506101000a81548160ff021916908360ff1602179055506001600260008573ffffffffffffffffffffffffffffffffffffffff1673ffffffffffffffffffffffffffffffffffffffff16815260200190815260200160002060006101000a81548160ff02191690831515021790555050505050565b600160205280600052604060002060009150905054815600a165627a7a72305820caa793fff4080af07a865bbfc11eeb7dbda89bbe0a77302127967bc0996335bf0029",
  "source": "pragma solidity ^0.4.18;\nimport \"./ECRecovery.sol\";\n\ncontract Voting {\n  using ECRecovery for bytes32;\n\n  mapping (bytes32 => uint8) public votesReceived;\n\n  mapping(bytes32 => bytes32) public candidateHash;\n\n  mapping(address => bool) public voterStatus;\n\n  mapping(bytes32 => bool) public validCandidates;\n\n  function Voting(bytes32[] memory _candidateNames, bytes32[] memory _candidateHashes) public {\n    for(uint i = 0; i < _candidateNames.length; i++) {\n      validCandidates[_candidateNames[i]] = true;\n      candidateHash[_candidateNames[i]] = _candidateHashes[i];\n    }\n  }\n\n  function totalVotesFor(bytes32 _candidate) view public returns (uint8) {\n    require(validCandidates[_candidate]);\n    return votesReceived[_candidate];\n  }\n\n  function voteForCandidate(bytes32 _candidate, address _voter, bytes _signedMessage) public {\n  //function voteForCandidate(bytes32 _candidate, address _voter) public {\n    require(!voterStatus[_voter]);\n\n    bytes32 voteHash = candidateHash[_candidate];\n    //address recoveredAddress = voteHash.recover(_signedMessage);\n\n    //require(recoveredAddress == _voter);\n    require(validCandidates[_candidate]);\n\n    votesReceived[_candidate] += 1;\n    voterStatus[_voter] = true;\n  }\n}\n\n",
  "sourcePath": "/Users/mozzanlin/workspace/restaurants_rating/contracts/Voting.sol",
  "compiler": {
    "name": "solc",
    "version": "0.4.19+commit.c4cbbb05.Emscripten.clang"
  },
  "schemaVersion": "1.0.1",
  "updatedAt": "2021-06-20T04:52:41.051Z"
}